S0120000426F6F744C6F616465722E7372656327
S1130000381300203D130000C3000000C711000096
S113001000000000000000000000000000000000DC
S11300200000000000000000000000003B1300007E
S11300300000000000000000DB130000E7130000D4
S11300406D1400006D1400006D1400006D140000A8
S11300506D1400006D1400006D1400006D14000098
S11300603D1400006D140000451400006D140000E0
S1130070850700004D140000551400006D140000A5
S11300806D1400006D1400006D1400006D14000068
S11300906D1400006D1400006D1400006D14000058
S11300A06D1400006D1400006D1400006D14000048
S11300B06D1400006D1400005D1400006514000050
S11300C07047FEE718B585B0040068463849142225
S11300D001F09CF800206846617889004058217836
S11300E0E278002A14D10A00D2B292008258022384
S11300F013430A00D2B2920083500A00D2B2920093
S1130100825801239A430B00DBB29B00C25017E0D4
S1130110E278012A0AD10A00D2B29200825803235B
S113012013430A00D2B29200835009E00A00D2B20B
S11301309200825802239A430B00DBB29B00C25008
S1130140A278082A0FDA0A00D2B292008258194B18
S11301501340A2781202E024E40014401C43C9B204
S11301608900445022E00A00D2B292008258114B16
S11301701340802252001A430B00DBB29B00C25092
S1130180A022825801238B401343A02283500A00EB
S1130190D2B292008258084B1340A2781204F02481
S11301A0240314401C43C9B28900445006B010BD56
S11301B018140000FFF8FFFFFFFFF0FF55706461A3
S11301C07465206661696C65642E50726573732072
S11301D074686520726573657420627574746F6EDB
S11301E020616E6420707265737320746865206288
S11301F06F6F7420627574746F6E20746F20656EF7
S11302007465722074686520626F6F742070726FF9
S11302106772616D20616761696E0D0A00000000FC
S11302205570646174652073756363657373667573
S11302306C2E506C65617365207265736574206201
S11302406F61726420776974686F757420626F6F70
S11302507420627574746F6E207072657373696E46
S11302606720746F2072756E206E65772041505040
S11302700D0A0000537461727420557064617465D2
S1130280204170702E506C656173652073656E64D7
S113029020535245432066696C650D0A0000000036
S11302A0000000F8400000F8800000F8C00000F8EA
S11302B0000100F800A0064000B0064000C006405F
S10702C0FF01FF0A2D
S1130400FFFFFFFFFFFFFFFFFFFFFFFFFEFFFFFFF9
S113041000B5010049B2002905D40121C006C00E6F
S11304208140C348016000BD00B5010049B2002904
S113043009D40121C006C00E8140BE480160BFF34B
S11304404F8FBFF36F8F00BDF7B581B0002000243C
S113045000200020694608700025ED430020002795
S1130460042621E00299081A18E0A8421AD2711E43
S11304706A46117069464C880500FFB2002F11D0FE
S11304800198210089B2491C3200D2B2514300F0D4
S1130490E8F902998842E5D30299401AA84201D2A8
S11304A0641C05000127761C3000C0B2212827DA1D
S11304B0019802993200D2B2514300F0D2F9694650
S11304C0488068464088002803D101206946488056
S11304D00027019869464A883100C9B2514300F0A7
S11304E0C0F90299884202D30299401A01E00299A4
S11304F0081A0028B9D1761E6846067068464488F2
S1130500039869460978C91E042904D20169802226
S113051092020A4302610169B44A0A4069460978B1
S11305200906F8235B050B40134303610169490B7A
S11305304903A4B2E204D20C0A430261FFBD80B5B0
S11305408F49884203D10C20FFF762FF0CE0A849D1
S1130550884203D10D20FFF75BFF05E0A5498842DF
S113056002D10E20FFF754FF01BD80B584498842B3
S113057003D10C20FFF758FF0CE09D49884203D1BA
S11305800D20FFF751FF05E09A49884202D10E2061
S1130590FFF74AFF01BD38B505009748297889005F
S11305A04458A06995490140A161A069944901405A
S11305B0A161287B032805D1206980218905014395
S11305C0216127E0287B02280CD120698D49014054
S11305D02161A0698C490140A161A06910210143F6
S11305E0A16117E0287B01280BD1206985490140CE
S11305F021618548A1690140A161A1690840A06108
S113060008E020697F4901402161A0698021090136
S11306100143A161687B022804D1A06902218843B7
S1130620A06112E0687B002808D1A069022101437F
S1130630A161A06901218843A06106E0687B0128CB
S113064003D1A06903210143A161E87B012804D1FE
S113065060696C490140616107E0E87B002804D1CE
S113066060698021890501436161287C012808D1E2
S113067080204005A1690143A1616169084360616B
S113068006E06248A1690140A161616908406061B6
S1130690A87B002804D120695D490140216104E060
S11306A0206980218901014321612200A9686868C9
S11306B0FFF7CAFE687C012804D1A06980210903E0
S11306C00143A161A87C012804D1A0698021C90249
S11306D00143A161E87C012803D12000FFF72FFF2B
S11306E002E02000FFF741FF01204A490872A8698F
S11306F04949086068694949086031BD10B53E4BF5
S1130700C0B280001858002A10D0424B4C1C1C6008
S11307101C1D22600978C1615968491E21600021AD
S113072019728169802212040A43826110BD00009B
S113073000E100E080E100E030B500231C002E4C15
S1130740C0B28000205809E0446925002D02ED0F55
S1130750002DF9D00C78C461491C5B1C9342F3D37F
S113076030BD25490200D2B292008A589269802392
S11307709B031343C0B28000085883617047000094
S113078000A0064038B50124254D2868400D2040BE
S1130790002805D023480068C0B21F49096888476B
S11307A01C48017A00291FD12968C90D214000295C
S11307B01AD04168002906D104721B490A681B4BF0
S11307C013400B6009E001680978164A116001685A
S11307D0491C01604168491E416010490A68002AA9
S11307E002D040680968884731BD0000FFFFFFE080
S11307F000B0064000C00640F8000020FFFFFBFFE9
S1130800FFFFF7FFFFFFFFDFFFF7FFFFFFFFFFEF34
S1130810FFDFFFFF101100201C1100202011002019
S113082014A006401CA0064018A00640FFFF7FFF4E
S1130830F446002804D4494200F013F840426047CB
S11308404042002905D45FD000F00BF840424942F1
S11308506047494200F005F84942604703460B43AC
S1130860E6D40022030A8B420BD203098B4219D22D
S113087043088B422ED2411A00D2014652411046FF
S11308807047FF2209023FD012068B4205D3121291
S113089009028B4201D31212090203098B4219D3B4
S11308A000E0090AC3098B4201D3CB01C01A5241AB
S11308B083098B4201D38B01C01A524143098B42F5
S11308C001D34B01C01A524103098B4201D30B01DE
S11308D0C01A5241C3088B4201D3CB00C01A524103
S11308E083088B4201D38B00C01A524143088B42C8
S11308F001D34B00C01A5241884200D3401A5241DE
S1130900CFD201461046704708B5FFF7D9FB08BDA2
S1130910F7B582B000200025002000260024002026
S11309200120694608710298290089B2405C00F0F0
S11309308FF8C0B207010298290089B240184078A4
S113094000F086F838432418400069468989091F55
S1130950884202D0002069460871AD1C002717E0C8
S11309600298290089B2405C00F072F8C0B200011C
S113097000900298290089B24018407800F068F885
S113098001000098014336020E436418AD1C7F1C1D
S1130990A94839000278C9B29142E1D304990E60A2
S11309A06946898900784000081A801F0221FFF7F0
S11309B055FF6946C8806846C0880499822252005F
S11309C0885200273E001AE00298290089B2405C50
S11309D000F03EF8C0B2010100910298290089B2EA
S11309E04018407800F034F800990843AD1C010029
S11309F0049A3300DBB2D21811712418761C30002B
S1130A00C0B26946C98880B28842DDD30298290001
S1130A1089B2405C00F01CF8C0B206010298ADB285
S1130A204019407800F014F830430021C943614074
S1130A30C9B2814202D03800694608717F480088F3
S1130A40002801D0684607716846007905B0F0BDFA
S1130A5000B5010000200A00D2B2413A062A02D2AF
S1130A60C93108000AE00A00D2B2303A0A2A02D296
S1130A70D031080002E00121704A1180C0B200BDEB
S1130A8000216F480A0002706E4A11600A006B4B25
S1130A901A800A226C4B1A70674A117000787047EA
S1130AA0F7B504000020060001273800644D2878BB
S1130AB0FF2808D0300080B2205C532801D1761C76
S1130AC001E005202870300080B2205CFFF7C0FFF1
S1130AD00200761C300069468988029E2B78002B20
S1130AE00BD0012B25D0022B25D0032B50D0042B67
S1130AF053D0FF2B00D096E097E0002A16D10222B3
S1130B004D4B1A703200891E89B280B22018FFF74B
S1130B10FFFE3168002902D1C0B2002801D10520AE
S1130B2028702878052803D02F7001E0052028704C
S1130B307BE002232B70002A21D0042A1FD2424BCF
S1130B401F780A2F05D01F78974202D005202870FD
S1130B5014E017001F703B4B1F687F1C1F60521C62
S1130B60354B1A703200891E89B280B22018FFF703
S1130B70CFFEC0B2002801D10520287055E0052A17
S1130B8004D0062A02D0D31F032B2CD203232B70AC
S1130B90D31F032B2AD204232B702B4B1F78012F36
S1130BA001D1092A0BD01F78022F01D1082A06D0BF
S1130BB01B78032B01D1072A01D005232B702B7836
S1130BC0052B2FD00B239A1A1B4B1A703200891E47
S1130BD089B280B22018FFF79BFEC0B200281FD054
S1130BE0062028701EE0052028701EE0FD32124BFE
S1130BF01A703200891E89B280B22018FFF788FE6D
S1130C00C0B2002809D00F4800683168884202D079
S1130C100520287003E02F7001E00520287004E00F
S1130C200520287001E0052028702878FEBDFF20EB
S1130C300349087070470000321100202E11002073
S1130C40060100202811002007010020F0B589B01A
S1130C50012000F02FF901216A2000F05DF9012143
S1130C604A2000F03EF9012401A82100417021002E
S1130C7001700227390081703900C17001A8FFF7A3
S1130C8021FA6846210041700025290001703900CD
S1130C9081703900C1706846FFF714FA02AE28006B
S1130CA03070E12040020490280030742800B073B2
S1130CB0200030732000F073777300F05FF9039025
S1130CC0200070742000B074F47471480890079583
S1130CD002A8FFF760FC09B0F0BD38B505006D4C03
S1130CE02078002803D000F076F9002812D12800DB
S1130CF0C0B20A2808D12800C0B200F0B2F900F04E
S1130D007EF90120207005E0002020702800C0B288
S1130D1000F0A7F931BD10B5012000F04FF9FFF73D
S1130D20AFFE5D490870FFF791FF72B61721A0204E
S1130D30000200F02DFA040062B62000C0B20128BF
S1130D4008D1282255490020FFF7D8FC0020FFF7DE
S1130D5008FD04E0602252490020FFF7CFFC200088
S1130D60C0B210BD3EB501214C2000F0BAF80324F6
S1130D7001A8210041700225290001700021817021
S1130D8001A800F021FA684644702900017001218D
S1130D908170C5706846FFF795F937BD80B50221AB
S1130DA0032000F027FA002801D1012000E00020F0
S1130DB0C0B202BDF8B5C2B0002630003000012434
S1130DC000F013F9002833D100F05AF907000C227F
S1130DD034490020FFF7B0FC2F4D6A468020C00044
S1130DE0395A3800FFF75CFE287000F023F92878A0
S1130DF002281DD10098A0210902884217D335008A
S1130E0000E02D1D684682214900405A85420FD2D8
S1130E1072B668464019011D0098401900F06AF93D
S1130E20040062B62000C0B20028EAD100E0340019
S1130E3019480178062908D1FFF7F9FE52221A4908
S1130E400020FFF779FC34000CE00078052803D07B
S1130E502000C0B2002805D1602211490020FFF70C
S1130E606BFC34002000C0B243B0F0BD80B500205C
S1130E7072B6A02000020D49086062B6A0200002EC
S1130E80006880F308880A480068804701BD0000B4
S1130E90DB0C00000501002004010020B800002044
S1130EA0000000202C1400006400002008ED00E085
S1130EB004A0000010B43A490A6801239A430A6066
S1130EC0384A1368384C1C40C0B20002E023DB00EF
S1130ED00340234313600868012202430A6010BCE4
S1130EE0704700B5C9B201290BD130490200D2B212
S1130EF092008A588023DB051343C0B280000B5054
S1130F0009E02A490200D2B292008A58284B1340C1
S1130F10C0B280000B5000BD00B5C9B2012922D176
S1130F2022490200D2B292008A58214B1340020097
S1130F30D2B292008B500200D2B292008A581D4B5A
S1130F401340C02292041A430300DBB29B00CA5030
S1130F500200D2B292008A588023DB051343C0B248
S1130F6080000B5009E011490200D2B292008A5865
S1130F700F4B1340C0B280000B5000BD00B50021E0
S1130F80080008490968090A4907490F0A00D2B24A
S1130F90002A03D00848C9B2FFF763FC00BD000073
S1130FA00043064004430640FFF8FFFF005006409C
S1130FB0FFFFFFBFFFFFFFF8006CDC020020010011
S1130FC0334A11700100334A11700100324A118012
S1130FD032490860704700B530480068042801D1E0
S1130FE0012000E00020C0B200BD00B52B4800681D
S1130FF0002801D1012000E00020C0B200BD30B4BF
S1131000244825490A88264B0478264D6C431B192D
S11310108024E4001A530278521C0270027892076A
S1131020920F0270002008801C480168491C01606E
S113103030BC704700B5174815490A7803789A42BE
S113104003D100220A7002700AE00878401C08707C
S113105008788007800F087010480168491E0160F5
S113106000BD10B40C490E4A0A4B1B780D4C634367
S1131070D2180B88D0540888401C088010BC7047D4
S1131080074803490978074A51434018704700004C
S113109030110020311100202C11002024110020D7
S11310A0080100200204000000B530490A78D20982
S11310B0012AFAD101220B781B091340002B04D119
S11310C00B785B091A40002A01D030220A700922E9
S11310D0274B1A700200120C264B1A70020A264B78
S11310E01A70264A1070802008700878C0090128F8
S11310F0FBD100BD30B50200012318009407A40FF2
S1131100002C2FD1194C2578ED09012DFAD1257821
S11311102D091D40002D04D125786D092B40002B8D
S113112001D0302323700623114D2B7013001B0CA8
S1131130104D2B70130A104D2B70104B1A70CA7877
S11311400F4B1A708A780F4B1A704A780E4B1A702C
S113115009780E4A1170802121702178C90901296A
S1131160FBD100E00020C0B230BD0000000002400E
S1131170070002400600024005000240040002404D
S11311800B0002400A00024009000240080002402D
S1131190F8B504000125A005800D00280FD1002614
S11311A00F003000390080B289B2884208D2300082
S11311B080B280022018FFF777FF761CF1E7002544
S11311C02800C0B2F2BDFEE700B500210E49427806
S11311D092008A5801788078012805D1506901234A
S11311E08B400343536104E0506901238B409843CF
S11311F0506100BD044AC0B2800010580269CA4060
S11312001000C007C00F7047E400002070B4103A0B
S113121003D378C9103A78C0FBD2530701D318C955
S113122018C001D508C908C0D20704D30B880380AD
S1131230891C801C002A01D50B78037070BC704790
S113124080B50C480168890403D50B490B4A116029
S113125004E00A490A4A0A600A4A0A600A490B4A2F
S1131260116001688022914320220A43026000F049
S11312700FF801BD0020054020C528D904200540F1
S113128020C5000028D90000FFFF00000820054009
S113129070471CB50020694608700124FFF762FD01
S11312A0FFF77CFD002802D1FFF7E0FD02E0FFF725
S11312B032FD04002000C0B2012802D1FFF77AFDFC
S11312C00400684600780028F4D0002016BD70B4ED
S11312D00123002413E00168001D194202D04D4689
S11312E06918491E0C60091D121F042AFAD20D0048
S11312F0960701D50C80AD1C1A4000D02C700268F2
S1131300001D002AE7D170BC704730B401220EE002
S11313100368C31844680830144202D04D462C199F
S1131320641E1D6825601B1D241D091FF9D1016859
S1131330001D0029ECD130BC7047FEE772B60548A9
S1131340054901600A6882F308880448804762B648
S11313500348004708ED00E00000000041120000CF
S1131360FD13000010B5074979441831064C7C443C
S1131370163404E0081D0A68891888470100A14250
S1131380F8D110BD080000002800000043FFFFFF53
S11313902C10000008010020000000006FFFFFFF78
S11313A00801000018EEFFFF00000020000000000C
S11313B000F00DF8002801D0FFF7D4FF00BF00BFF4
S11313C0002000BF00BFFFF764FF00F002F8012017
S11313D0704780B500F002F801BDFEE707463846C5
S11313E000F002F8FBE7FEE780B500BF00BF024A49
S11313F011001820ABBEFBE7260002000548014699
S113140003B4684680F3098800BF00BF00BF00BF73
S1131410FFF7CEFFA5EDF5FE0090044000A00440C8
S113142000B0044000C0044000D004404C6F61642C
S1131430696E672E2E2E0D0A00000000004800473A
S11314406D140000004800476D1400000048004778
S11314506D140000004800476D1400000048004768
S11314606D140000004800476D1400000048004758
S10714706D140000F3
S90313FDEC
